:020000040800F2
:10000000F03D0024AD020008C95F0008995D0008BA
:10001000C15F0008190C00081970000800000000FA
:10002000000000000000000000000000296200083D
:100030006910000800000000D15F0008316200086C
:10004000C7020008C7020008C7020008C70200086C
:10005000C7020008C7020008C7020008C70200085C
:10006000C7020008C7020008C7020008210C0008E8
:10007000C7020008C7020008C7020008C70200083C
:10008000C7020008C7020008C7020008C70200082C
:10009000C7020008C7020008C7020008C70200081C
:1000A000C7020008C7020008C7020008C70200080C
:1000B000C7020008C7020008C7020008C7020008FC
:1000C000C7020008C7020008C7020008C7020008EC
:1000D000C7020008C7020008C7020008C7020008DC
:1000E000C7020008C702000800000000C70200089D
:1000F000C7020008C7020008C7020008C7020008BC
:10010000C7020008C7020008C7020008C7020008AB
:10011000C7020008C7020008C7020008C70200089B
:10012000C7020008C7020008C7020008C70200088B
:10013000C7020008C7020008C7020008C70200087B
:1001400000000000000000000000000000000000AF
:10015000C7020008C7020008C7020008C70200085B
:10016000C7020008C7020008C7020008C70200084B
:10017000C7020008C7020008C7020008C70200083B
:10018000C7020008C7020008C7020008C70200082B
:10019000C7020008C7020008C7020008C70200081B
:1001A000C7020008C7020008C7020008C70200080B
:1001B000C7020008C7020008C7020008C7020008FB
:1001C000C7020008C7020008C7020008C7020008EB
:1001D000C7020008C7020008C7020008C7020008DB
:1001E000C7020008C7020008C7020008C7020008CB
:1001F000C7020008C7020008C7020008C7020008BB
:10020000C7020008C7020008C7020008C7020008AA
:10021000C7020008C7020008C7020008C70200089A
:10022000C7020008C7020008C7020008000000005B
:10023000C7020008C702000800000000C70200084B
:10024000C7020008C7020008C7020008C70200086A
:10025000C7020008C7020008C7020008C70200085A
:10026000C7020008C7020008C7020008C70200084A
:10027000C7020008C7020008C7020008000000000B
:10028000C7020008C7020008C702000800000000FB
:1002900000000000C7020008DFF80CD000F048FAA8
:1002A00000480047E1750008F03D002406488047FB
:1002B00006480047FEE7FEE7FEE7FEE7FEE7FEE74B
:1002C000FEE7FEE7FEE7FEE7796300089902000813
:1002D0002DE9F05F0546002092469B46884606467B
:1002E000814640241BE0284641464746224600F00E
:1002F00057F853465A46C01A914110D31146184632
:10030000224600F03EF82D1A67EB01084F462246C0
:100310000120002100F035F817EB00094E41201EA6
:10032000A4F10104DFDC484631462A464346BDE8D5
:10033000F09FD2B201E000F8012B491EFBD27047BA
:100340000022F6E710B513460A4604461946FFF7A1
:10035000F0FF204610BD30B50B460146002020229C
:10036000012409E021FA02F59D4205D303FA02F5C2
:10037000491B04FA02F52844151EA2F10102F1DC22
:1003800030BD202A04DB203A00FA02F10020704739
:100390009140C2F1200320FA03F3194390407047C3
:1003A000202A04DB203A21FA02F00021704721FACA
:1003B00002F3D040C2F12002914008431946704731
:1003C0002DE9FE4F804681EA0300C00F0C460090E5
:1003D00021F0004123F00045B8EB0200A94105D20D
:1003E0004046214690461C460B46024623F00040FC
:1003F000104347D0270DC7F30A00C3F30A510290F8
:10040000401A019040286BDAC3F3130040F4801BBC
:100410000098924620B10023D2EB030A63EB0B0B4A
:1004200001985946C0F140025046FFF7AAFF064620
:100430000D4650465946019A00F08CF910EB080021
:100440006141002487EA115284EAE7731A4340D0DD
:10045000009A62B3019A012A4FEA075215DC001B89
:1004600061EB02014FF0004202EA0752CDE900427F
:10047000001C41F5801132462B4600F08CF903B088
:10048000BDE8F08F40462146F9E7001B61EB020111
:10049000001C41F5801300185B412018A2F50017DD
:1004A00047EB030140EAD570B6196D4111E06D08C4
:1004B0004FEA360645EAC0754FEA0752001B61EB6A
:1004C0000201001C41F5801149084FEA3000001973
:1004D000514132462B4603B0BDE8F04F00F04CB915
:1004E0000098012240000023D0EB020263EBE0738E
:1004F000009821464FEAE074B8EB000061EB04017C
:10050000E9E783F000435BE781F0004158E72DE91C
:10051000FE4F81EA030404F0004421F000410094FE
:100520004FF0000B23F0004350EA01045ED052EA82
:1005300003045BD0C3F30A54C1F30A552C44A4F25C
:10054000F3340194A0FB0254C1F3130141F4801170
:10055000C3F3130343F4801301FB024400FB034E77
:10056000840A970A44EA815447EA8357A4FB076840
:1005700002958D0A05FB07854FEA932C04FB0C546A
:100580002705029D4FEA065847EA1637B5EB0805DE
:100590006EEB070C870E920E47EA811742EA831230
:1005A000A7FB0201B6EB0B0164EB00042B0D43EA41
:1005B0000C335E1844EB1C50DA465146E7FB02014F
:1005C000C5F313044FEA0B3343EA14534FEA0432E2
:1005D000019C43EA0603A4F10C040294009CCDE9BB
:1005E00000B400F0D8F803B0BDE8F08F0020014659
:1005F000F9E72DE9F04D81EA030404F0004B21F006
:10060000004514464FF0000A23F0004150EA05026D
:1006100020D054EA01021DD0C5F30A570246C5F3A3
:100620001303C1F31300C1F30A5640F4801543F4D9
:100630008013A7EB0608101BD64608F2FD3873EBB3
:10064000050002D308F1010801E092185B41B8F1FE
:10065000000F03DA00200146BDE8F08D00204FF4C2
:100660008011064684460EE0171B73EB050705D381
:10067000121B63EB050306434CEA010C49084FEAE1
:10068000300092185B4150EA0107EDD152EA0300B5
:1006900012D082EA040083EA0501084305D0101B4A
:1006A000AB4106D20122002306E000224FF00043B6
:1006B00002E06FF0010253101AEB06004CEB0851F8
:1006C00010EB0A0041EB0B01BDE8F04D00F054B80F
:1006D000C1F30A52C1F3130140F2FF3341F4801118
:1006E0009A4202DA00200146704740F233439A42B0
:1006F000A2F2334202DC5242FFF752BEFFF741BE84
:1007000030B5041E71F1000404DB4FF00044404298
:1007100064EB0101141E73F1000405DB1C464FF06D
:100720000043524263EB0403994208BF904230BD3C
:10073000064C074D06E0E06840F0010394E807002E
:1007400098471034AC42F6D3FFF7AAFD6C0A0108B3
:100750008C0A0108202A06DBCB17203A41FA02F066
:1007600043EAE07306E041FA02F3D040C2F120020E
:10077000914008431946704710B5141E73F10004E8
:1007800008DA401C41F1000192185B411A4301D183
:1007900020F0010010BD2DE9F04D92469B4611B1AD
:1007A000B1FA81F202E0B0FA80F220329046FFF70F
:1007B000E8FD04460F4640EA0A0041EA0B015346B1
:1007C0005A46084313D0114653EA010019D0C8F124
:1007D00040025046FFF7E4FD05460E465046594696
:1007E0004246FFF7CEFD084305D0012004E0204635
:1007F0003946BDE8F08D0020054346EAE0762C43FB
:1008000037430A986305E40AA0EB08000022FD0ABA
:1008100044EA47540A3002D500200146E9E70105C1
:1008200010196941DDE9084500196941BDE8F04D3D
:10083000A2E7000000000000B0B50446006842F2E4
:10084000001140F48070C4F20201884218D142F2D3
:100850000830C4F20200006810F4403F18D004F0E1
:10086000C3FA61680546B1F5803F05D0B1F5403F58
:100870002CD0B1F5003F2AD1080CB5FBF0F526E0ED
:1008800046F20830C5F60200006810F4403FE6D199
:100890004FF40020002103F0A7F961680546A1F597
:1008A00080224FEAB2420A2A11D8DFE802F0070795
:1008B0000707070751535557590000BF6FF0010054
:1008C00000EA5140B5FBF0F501E000BFAD0802F0D1
:1008D0005BFE41F2030188420ED8206842F60151C6
:1008E000C0F231118D4281682CBF41F4807121F436
:1008F00080718160B0BD00BF4BF62140C0F2BE00E8
:10090000854205D82068816821F440718160B0BDBE
:1009100047F64100C0F27D10854207D820680122C9
:10092000816862F309218160B0BD00BF20684FF289
:100930008101C0F2FA218D42816805D8022262F35A
:1009400009218160B0BD00BF41F440718160B0BD3C
:100950002D09BCE76D09BAE7AD09B8E7ED09B6E7BF
:100960002D0AB4E70000000070B5044600688268F4
:10097000836802F0040203F00803D2186CD0C26846
:10098000920121D5627D012A1ED1227D012A1BD12F
:100990000168490613D44DF60441C0F20C01043934
:1009A00050D0026852065CBF02685FEA426206D419
:1009B000026852065CBF02685FEA4262EFD54021DE
:1009C0000160012106E000BF022903D102210826AF
:1009D00012E000BF826852070AD58268920707D4E6
:1009E0004FF6C0738268C7F6FF731A4010328260F8
:1009F00001294FF0040610D0826812070AD58268D8
:100A0000920707D44FF6C0738268C7F6FF731A4087
:100A100020328260032908BF0C2602F0BDFD216848
:100A20008968314218D0054603E000BF8068304233
:100A300012D002F0B1FD401B06282068F6D3816871
:100A40003142F3D0606D40F010006065A06D40F061
:100A50000100A065012070BD002070BD00000000F5
:100A60000146806B426D12F0500F426D06D0D206E7
:100A700010D4C06CC26C0846104700BF42F400712D
:100A8000416501680A681207CA6805D4910709D050
:100A900000F0AEBD00F0C0BD12F4406FF8D1C968DF
:100AA0008904F5D4416D21F480714165416DC9041B
:100AB000EED4416D41F00101416500F099BD0000A7
:100AC000806B416D41F040014165816D41F0040151
:100AD000816500F0A1BD0000806B00F099BD0000B1
:100AE000B0B5016804468A688868C0074FF0000006
:100AF00031D012F0020218BFB0BD886800F00D00BE
:100B000001281FD14FF6C0728868C7F6FF721040E7
:100B1000023088600320086002F03EFD2168896889
:100B2000C90701D10020B0BD054602E08068C007BA
:100B3000F8D002F031FD401B03282068F6D381680D
:100B4000C907F3D0606D40F010006065A06D40F003
:100B50000100A0650120B0BDF0B581B00446006879
:100B60008168C90752D14FF6C0778168C7F6FF7711
:100B700007F17F0211420BD0606D40F010006065FC
:100B8000A06D40F00100A065012001B0F0BD00BFE4
:100B90008168394041F00101816002F0FDFC42F2C0
:100BA000000246F20836C4F20202216802F58073A0
:100BB00002F54275C5F60206994208BF2E469142DB
:100BC0000A4608BF2E469942054604BF42F200027B
:100BD000C4F2020230688A4218BF10F01F0015D11B
:100BE0000868C00712D18868C00704D188683840F7
:100BF00040F00100886002F0CFFC401B2168032810
:100C0000EED30868C007EBD1B6E700BF002001B003
:100C1000F0BD000000000000FEE700000000000042
:100C200043F69400C2F2004001F072BA00000000E6
:100C300040F20F42D0F800C0C4F20202944511DC29
:100C40006F22C4F20202944522DC3F22C4F2020267
:100C5000944539DC1022C4F2020294455AD028226D
:100C600054E000BF40F26F42C4F2020294451BDC24
:100C700040F23F42C4F2020294452DDC40F21042A1
:100C8000C4F20202944545D040F228423EE000BF43
:100C90009F22C4F20202944528DC7022C4F20202B0
:100CA000944537D0882231E040F29F42C4F20202DC
:100CB000944523DC40F27042C4F20202944529D0EC
:100CC00040F2884222E000BF4022C4F20202944572
:100CD00020D058221AE000BF40F24042C4F2020283
:100CE000944517D040F2584210E000BFA022C4F251
:100CF000020294450ED0B82208E000BF40F2B8428C
:100D0000C4F20202944505D040F2A042C4F20202AD
:100D1000944519D16FF00F024AF6AB2352FA8CF2C8
:100D2000CAF6AA23A2FB03310AA35F2AC1F3021168
:100D30005B5C40F2FF312CEA0101C36588BF0431DE
:100D400081650846704700BF2CF0FF0181650846A9
:100D5000704700BF000610160006101600000000C5
:100D600070B540F26F44D0F800C0C4F20204D0F86D
:100D700058E0A4451ADC9F25C4F20205AC4533DCDB
:100D80005725C4F20205AC455ADC1025C4F2020511
:100D9000AC4500F098802825C4F20205AC4500F06F
:100DA00092804025C4F202058AE000BF45F22F453B
:100DB000C5F60205AC452DDC40F2B745C4F202058C
:100DC000AC454BDC40F27045C4F20205AC457AD02C
:100DD00040F28845C4F20205AC4574D040F2A0450B
:100DE000C4F202056CE000BF40F22745C4F20205E0
:100DF000AC4543DCA025C4F20205AC4563D0B82560
:100E0000C4F20205AC455ED040F21045C4F20205C2
:100E100056E000BF45F26B45C5F60205AC453FDC28
:100E200045F23045C5F60205AC454CD045F2444587
:100E3000C5F60205AC4546D045F258453EE000BF38
:100E40005825C4F20205AC453DD07025C4F2020518
:100E5000AC4538D08825C4F2020531E040F2B845EF
:100E6000C4F20205AC452ED045F20845C5F6020590
:100E7000AC4528D045F21C4520E000BF40F2284593
:100E8000C4F20205AC451ED040F24045C4F2020552
:100E9000AC4518D040F25845C4F2020510E000BF3E
:100EA00045F26C45C5F60205AC450CD045F29445BB
:100EB000C5F60205AC4506D045F28045C5F60205EB
:100EC000AC4540F0CF80456EC66E002E866E6E60DB
:100ED0001CBFD0E91C566E60A44515DC9F24C4F2EB
:100EE0000204A4452CDC5724C4F20204A44551DCBE
:100EF0001024C4F20204A4457AD02824C4F20204C7
:100F0000A44575D040246FE045F22F44C5F6020495
:100F1000A44529DC40F2B744C4F20204A44545DCF0
:100F200040F27044C4F20204A44561D040F2884407
:100F3000C4F20204A4455BD040F2A04454E000BFD8
:100F400040F22744C4F20204A4453FDCA024C4F2CA
:100F50000204A4454CD0B824C4F20204A44547D0EE
:100F600040F2104440E000BF45F26B44C5F6020475
:100F7000A44553DC45F23044C5F60204A4455FD0D5
:100F800045F24444C5F60204A44559D045F25844FC
:100F900052E000BF5824C4F20204A44528D07024B3
:100FA000C4F20204A44523D088241DE040F2B844D2
:100FB000C4F20204A4451BD045F20844C5F602045D
:100FC000A4453DD045F21C4436E000BF40F2284421
:100FD000C4F20204A4450BD040F24044C4F202041F
:100FE000A44505D040F25844C4F20204A44539D1C6
:100FF0008468C06D00F01F003F2505FA00F0CEF8B0
:101000000800DCF80000402C20F48020CCF8000020
:10101000CCF8043021D1CCF8082021E045F26C4412
:10102000C5F60204A4450BD045F28044C5F602047F
:10103000A44505D045F29444C5F60204A44511D157
:10104000C46D806804F01F040125402805FA04F4EB
:10105000CEF80440CCF80430DDD0CCF808101146AE
:10106000CCF80C1070BD00007047000000000000BC
:10107000EFF3108072B600BFFEE700000000000032
:1010800070B582B000230193044690F85000012807
:1010900002D1022002B070BD012084F85000204629
:1010A00015460E46FFF71CFD616D18B141F01001A9
:1010B0004CE000BF41F202124FF6C0739143C3F6F9
:1010C000FE7302316165216806F4803605F08045C3
:1010D0008A682E4413404FF2FF72C2F2C352334467
:1010E00003F100438B608B68B3F1FF3F2ADC019B67
:1010F00001330193019B93421DD88B68B3F1FF3FED
:1011000020DC019B01330193019B934213D88B6830
:10111000B3F1FF3F16DC019B01330193019B934226
:1011200009D88B68B3F1FF3F0CDC019B01330193BD
:10113000019B9342D7D9606D40F0100020F002016E
:10114000012003E0616D012262F30101616500216C
:1011500084F8501002B070BDB0B582B090F8502045
:10116000012A03D10221084602B0B0BD42F2083282
:1011700000230193C4F202020093A2F542740368B3
:10118000A34227D14FF6006C4FF60055CFF6FF7CF7
:10119000CFF6FF7552F80C40535923435B0719D41F
:1011A000D1F800E01368BEF1000F23F440441DD0D5
:1011B0004B6823431360535952F80C502B43DB0701
:1011C00022D1136840F61F758968AB4341EA0E01CE
:1011D000194316E0416D41F02001416501210022D3
:1011E00080F85020084602B0B0BD00BF14605159CD
:1011F00052F80C301943C90708D1116840F61F7323
:10120000994311600021EAE70021E8E70021E6E7C1
:10121000F0B581B00022009290F85020012A03D14D
:101220000221084601B0F0BD0768012380F8503064
:10123000BB685B0700F178810B684FF6FF7CB3F168
:10124000FF3FC0F20F0C11DD93FAA3F413EA0C0F69
:10125000B4FA84F44FF0010208BF9C0E9B0E04F018
:101260001F04A240FC692243FA6100E09B0E4A6819
:101270001F2603F01F03C2F3012402F01F02964051
:1012800007EB840403FA02F2256B25EA06063243D3
:101290002263BA68BB6802F0040203F00803D218A4
:1012A00078D10A6807258E68C2F34063C2F30452FE
:1012B00007EB830395405C6906FA02F224EA050510
:1012C0002A435A6141F20002C5F60042126802F058
:1012D0007042B2F1805F33D14A69FB680E2606EA9C
:1012E000530302FA03F30C69042C39D007F16002AE
:1012F0000E6806F0F84652F82450334305F00045D6
:101300002B4342F824300B694E7E52F82350012EB5
:1013100025F0004508BF05F1004542F823500A7E3C
:101320000B693E69013A03F01F03B2FA82F226F418
:10133000F0465209D2029A4032433A612AE000BF95
:10134000FA684B69FE68D2064FEA560402D404F0EC
:101350000E0201E004F0080293400C69042CC5D190
:101360003A6E0B6802F0F8429B069A4240D07A6EC1
:1013700002F0F8429A4244D0BA6E02F0F8429A4221
:1013800048D0FA6E02F0F8429A4203D1FA6E22F087
:101390000042FA66BA68D20728D1CA680B6802F020
:1013A000180503EA0C042CFA05F540F2000CD7F8F6
:1013B000C060C4F2FF7CA6431D40624545EA0602B8
:1013C000C7F8C02056D17CB393FAA3F2B2FA82F2E6
:1013D000013202F01E03092B02F01F032DD8012257
:1013E00003EB43069A4042EA065332E00021A0E0B4
:1013F0003A6E22F000423A667A6E02F0F8429A4261
:10140000BAD17A6E22F000427A66BA6E02F0F842E1
:101410009A42B6D1BA6E22F00042BA66FA6E02F073
:10142000F8429A42B2D0B5E7012202EB936202F091
:101430001E030A2B02F01F03D1D3012203EB430644
:101440009A400023CFF6206303EB06531A4342F081
:101450000073C3F340620725C3F304538E6807EBA0
:1014600082029D40546906FA03F324EA05052B43E2
:1014700053610B68B3F1FF3F02DD002159E000BF6B
:1014800042F2000146F2083CC4F20201C5F6020C29
:1014900001F5807201F542769742624608BF3246F6
:1014A0008F4242F2001508BF324647F48076C4F2FC
:1014B0000205AE4214682FD18A68D1F80811114391
:1014C000C90731D1002104F0E07ECCF684318B4293
:1014D00008BF14F4000133D00021CCF252718B42CA
:1014E00008BF14F0807131D00021CCF6B8718B4266
:1014F0004FF000011DD114F4800204BFACF542721C
:10150000974216D1DCF8001021F0E07141EA0E019B
:1015100041F480015EE000BF4FF60051CFF6FF714D
:101520005CF80110C907CDD0416D41F02001416543
:101530000121002280F85020084601B0F0BD00BF14
:10154000ACF542718F4207D00021F2E7ACF5427151
:101550008F4237D00021ECE7DCF8001042F66352EE
:1015600021F0E071C0F23E5241EA0E0141F4000167
:10157000CCF8001040F20C01C2F200410968890960
:10158000A1FB02129109022202EB41010091009994
:1015900021B3009901390091009909B300990139EB
:1015A00000910099F1B10099013900910099D9B1E8
:1015B000009901390091009900294FF00001E8D10C
:1015C000B7E700BFDCF8001021F0E07141EA0E013E
:1015D00041F08071CCF800100021AAE70021A8E7B3
:1015E0000021A6E70021A4E70021A2E700000000F7
:1015F00042F200010068C4F20201884218BF70473D
:1016000040F218000121C2F2004001707047000052
:10161000704700000000000070470000000000005C
:10162000B0B582B0044600284FF00000019009D008
:10163000606D58B120688168890012D48168C90042
:1016400019D54AE00125284602B0B0BD204600F079
:1016500023F90020A06584F8500020688168890083
:10166000ECD54FF6C0728168C5F6FF7211408160FB
:101670008168C90031D44FF6C0718268C5F6FF7128
:1016800001F18051114042F6635201F180518160B5
:1016900040F20C01C0F23E52C2F2004109688909D1
:1016A000A1FB0212012101EB921101E00199013924
:1016B0000191019989B1019901390191019961B1B2
:1016C000019901390191019900291FBF019901393F
:1016D0000191019918BF0029E8D18168C90009D496
:1016E000616D012541F010016165A16D41F00101BD
:1016F000A16500E000258168626D02F0100201F032
:1017000004018918616D45D121F48171023161654F
:101710008168C90728D142F2001240F48071C4F2F6
:101720000202914242F20001C4F2020140F0A8809C
:101730008A68D1F808311A43D20715D101F58072B1
:1017400001F5427346F2080C9042C5F6020C1A46A7
:1017500018BF0CF54072884208BF1A4660681168CD
:1017600021F47C110843106001F00EFF617D41F20D
:101770000402A36890424FEA4131226B12D3102B2E
:1017800010D1207F114341EA004141F01C010128A2
:101790000FD015E041F0100001256065284602B029
:1017A000B0BD00BF207F1143194341EA0041012829
:1017B00006D1206A0022CFF6FE7202EB40400143C0
:1017C000606A28B100F47870A26A084340EA020116
:1017D00020684CF20303CFF6F073C2681A4011433D
:1017E000C1608168826801F0040102F00802891872
:1017F00032D1217D44F2030CE26AC36842EA8131AE
:1018000023EA0C021143C16094F8381001290169E0
:1018100016D14FF61E02CFF6004201EA020C00215B
:10182000D4E90F23CFF6FF7101EB02414CEA03022A
:10183000636C1143A26C1943114341F0010101E0B3
:1018400021F0010101610169626B21F070411143D6
:1018500001612046FEF7F0FF2068E1680129026B74
:1018600022F00F0102D1A269013A11430163012163
:10187000606D61F301006065284602B0B0BD00BF35
:1018800046F20802C5F602021268D2073FF456AFCC
:101890006AE700000000000070B5B2B002A904467B
:1018A00001F128009821FEF74BFD42F2000120686B
:1018B000C4F20201884201D032B070BD00264FF45C
:1018C0000020029005200490A02005901920069089
:1018D0000220CDE9070080200396CDE9090602A881
:1018E0000B9602F0ADFB08B1FFF7C2FB44F2D84003
:1018F000C5F60200016841F020010160016801F0B5
:10190000200101910199816841F0010181608068A5
:101910004FF0807100F00100019001984FF080704D
:1019200003F026FE43F694051020C2F20045C4F2EF
:10193000020028600920C5E901064FF48060286193
:101940004FF4006068614FF40050A8614FF480705C
:10195000EE60C5E9070628466E6200F0F1FF08B1A7
:10196000FFF786FBE564AC6332B070BD0000000099
:101970002DE9F04381B042F2000746F20836C4F286
:1019800002070446036807F5807507F54270C5F63F
:101990000206AB4208BF0646BB4208BF0646306897
:1019A0009B685B0704D4894694F85010012903D141
:1019B000022001B0BDE8F08300F01F060120092ECF
:1019C00084F850005CD8B04040F22121084257D042
:1019D00020469046FFF7C0F830B1002184F850103F
:1019E00001B0BDE8F08300BF216840F60172A94252
:1019F00018BF0F46606D90438F4200F580706065A0
:101A000018BF002E03D1606D20F480106065606DFA
:101A100040F66123C0044FF0000044BFA06D20F0E9
:101A2000060040F6D927C0F60003A065C0F60007FF
:101A3000E06C0022C0E90F3740F6C123E76AC0F628
:101A40000003C3641C230B6084F8502043464A689B
:101A500042F010024A60CA6822F003023A43CA60A8
:101A600040314A4601F0B4FA21684FF6C073C7F618
:101A7000FF738A681A4004328A6001B0BDE8F083BF
:101A8000002084F85000012001B0BDE8F083000080
:101A900070B5044690F85000012801D1022070BDB5
:101AA000012084F8500003212046FEF75DFF054623
:101AB00020B1002084F85000284670BD2168E06CF9
:101AC000CA6822F00302CA6090F83520022A40D189
:101AD00000F086F8E0B305462068616D41F04001F2
:101AE0006165416821F01001416081688268D20718
:101AF000DFD011F00201DCD1816801F00D01012974
:101B00001ED14FF6C0728168C7F6FF7211400231D4
:101B100081600321016001F03FFD21688968C907E8
:101B2000C7D0064603E000BF8068C007C1D001F0FF
:101B300033FD801B03282068F6D38168C907F3D0E2
:101B4000606D40F010006065204650F8581F3FE07F
:101B50002168486820F01000486088688A68D207C9
:101B600017D010F0020014D1886800F00D00012891
:101B700026D14FF6C0728868C7F6FF721040023057
:101B800088600320086001F007FD21688968C907A3
:101B900008D1204641F20112002550F8541F91430C
:101BA00016E000BF054602E08068C007F1D001F0F2
:101BB000F3FC401B03282068F6D38168C907F3D0E3
:101BC000606D012540F010006065204650F8581FF8
:101BD00041F001010160002084F85000284670BDEA
:101BE0002DE9F041044601F0D7FC1CB3054694F8FA
:101BF0003500022822D140F20F462768C4F20206BF
:101C000040F26F48B7426FF00E00C4F202081DDCCC
:101C10006F21C4F202018F422ADC3F21C4F202018B
:101C20008F4241DC1021C4F202018F4263D028218F
:101C30005CE000BF0120BDE8F08100BF802060654E
:101C40000120002184F83410BDE8F08147451BDCF9
:101C500040F23F41C4F202018F422DDC40F21041BC
:101C6000C4F202018F4246D040F228413EE000BF5C
:101C70009F21C4F202018F4228DC7021C4F20201CC
:101C80008F4238D0882131E040F29F41C4F20201F6
:101C90008F4223DC40F27041C4F202018F422AD00D
:101CA00040F2884122E000BF4021C4F202018F428D
:101CB00021D058211AE000BF40F24041C4F2020195
:101CC0008F4218D040F2584110E000BFA021C4F26A
:101CD00002018F420FD0B82108E000BF40F2B841A6
:101CE000C4F202018F4206D040F2A041C4F20201C8
:101CF0008F42394607D13946386820F01E0041F836
:101D0000140B6FF080000A68474500EA0200086083
:101D10001ADC9F20C4F20200874233DC5720C4F251
:101D2000020087425ADC1020C4F20200874200F011
:101D300097802820C4F20200874200F09180402062
:101D4000C4F202008AE000BF45F22F40C5F602004F
:101D500087422DDC40F2B740C4F2020087424BDCE0
:101D600040F27040C4F20200874279D040F28840CD
:101D7000C4F20200874273D040F2A040C4F20200D5
:101D80006CE000BF40F22740C4F20200874243DC0F
:101D9000A020C4F20200874262D0B820C4F2020040
:101DA00087425DD040F21040C4F2020056E000BF0E
:101DB00045F26B40C5F6020087423FDC45F23040F9
:101DC000C5F6020087424BD045F24440C5F60200FA
:101DD000874245D045F258403EE000BF5820C4F24B
:101DE000020087423CD07020C4F20200874237D004
:101DF0008820C4F2020031E040F2B840C4F2020090
:101E000087422DD045F20840C5F60200874227D010
:101E100045F21C4020E000BF40F22840C4F202001E
:101E200087421DD040F24040C4F20200874217D0E2
:101E300040F25840C4F2020010E000BF45F26C408E
:101E4000C5F6020087420BD045F29440C5F6020069
:101E5000874205D045F28040C5F60200874204D192
:101E6000206E016821F480710160386820F0010063
:101E7000386000BF3868C00710D001F08DFB401BF0
:101E80000628F7D320206065032084F83500012060
:101E9000002184F83410BDE8F08100BF2068B04212
:101EA00010DC6F21C4F2020188421DDC3F21C4F224
:101EB0000201884234DC1021C4F20201884255D06C
:101EC00028214FE040451BDC40F23F41C4F20201B3
:101ED00088422DDC40F21041C4F20201884245D014
:101EE00040F228413EE000BF9F21C4F20201884237
:101EF00028DC7021C4F20201884237D0882131E009
:101F000040F29F41C4F20201884223DC40F270415A
:101F1000C4F20201884229D040F2884122E000BF89
:101F20004021C4F20201884220D058211AE000BFAB
:101F300040F24041C4F20201884217D040F25841B9
:101F400010E000BFA021C4F2020188420ED0B821E7
:101F500008E000BF40F2B841C4F20201884205D057
:101F600040F2A041C4F2020188425BD1D4E91612CA
:101F700002F01F023F2303FA02F28A6040455BDC55
:101F80009F21C4F20201884214DC5721C4F20201ED
:101F9000884227DC1021C4F20201884200F0A280AE
:101FA0002821C4F20201884200F09C804021C4F242
:101FB000020195E040F22741C4F2020188421FDC91
:101FC000A021C4F20201884200F08C80B821C4F242
:101FD0000201884200F0868040F21041C4F2020102
:101FE0007EE000BF5821C4F2020188427AD07021FD
:101FF000C4F20201884275D08821C4F202016FE068
:1020000040F22841C4F2020188426BD040F24041C4
:10201000C4F20201884265D040F25841C4F2020184
:102020005EE000BFD4E9161202F01F02012303FA9A
:1020300002F24A604045A3DD45F22F41C5F6020198
:10204000884217DC40F2B741C4F20201884227DC23
:1020500040F27041C4F20201884243D040F288410C
:10206000C4F2020188423DD040F2A041C4F2020114
:1020700036E000BF45F26B41C5F6020188421FDC25
:1020800045F23041C5F6020188422BD045F2444169
:10209000C5F60201884225D045F258411EE000BF36
:1020A00040F2B841C4F2020188421BD045F2084117
:1020B000C5F60201884215D045F21C410EE000BF72
:1020C00045F26C41C5F6020188420BD045F29441BD
:1020D000C5F60201884205D045F28041C5F60201ED
:1020E00088420BD1616EA26EE06E4A6030B1016829
:1020F00021F480710160D4E91C014160012084F861
:1021000035000020002184F83410BDE8F081000083
:102110002DE9F04782B00021019140F20C01044604
:10212000C2F2004148F2B512C1F64E32A56D0968FF
:1021300040F26F490068C4F20209A1FB0218484549
:102140002E68296816DC9F21C4F2020188422DDC2A
:102150005721C4F20201884252DC1021C4F202016C
:1021600088427CD02821C4F20201884277D04021E5
:1021700070E000BF45F22F42C5F60202904229DC12
:1021800040F2B742C4F20202904245DC40F2704194
:10219000C4F20201884262D040F28841C4F20201D6
:1021A00088425CD040F2A04154E000BF40F2274199
:1021B000C4F2020188423FDCA021C4F2020188423D
:1021C0004DD0B821C4F20201884248D040F21041FB
:1021D00040E000BF45F26B42C5F60202904275DC5A
:1021E00045F23042C5F60202904200F0828045F28C
:1021F0004442C5F6020290427BD045F2584273E059
:102200005821C4F20201884229D07021C4F202018F
:10221000884224D088211DE040F2B842C4F2020274
:1022200090421CD045F20842C5F60202904260D0AE
:1022300045F21C4258E000BF40F22841C4F20201BE
:1022400088420CD040F24041C4F20201884206D0DC
:1022500040F25841C4F20201884240F05A83E16DD5
:10226000082201F01F0140F20F4A8A40C4F2020A1C
:10227000324200F0E68050454FF0040312DC6F2735
:10228000C4F20207B8426FDC3F27C4F20207B8422B
:1022900000F3A4801027C4F20207B84200F0C58002
:1022A0002827BDE048456BDC40F23F47C4F20207F7
:1022B000B84200F39B8040F21047C4F20207B842D4
:1022C00000F0B38040F22847AAE000BF45F26C421C
:1022D000C5F6020290420CD045F28042C5F60202D9
:1022E000904206D045F29442C5F60202904240F078
:1022F00010830268E36D03F01F0304279F400F4221
:1023000018BF12F0040621D102279F400F4218BFC8
:1023100012F002064CD1D940090740F1FA8212F0BE
:10232000080100F0F682016821F00E010160012031
:1023300000FA03F16960606584F835000020E16C03
:1023400084F83400002940F0DC82E2E211046F607E
:1023500026D4910603D4016821F004010160216CA8
:10236000002940F0CE82D4E29F27C4F20207B8428F
:1023700046DC7027C4F20207B84256D088274FE0E7
:1023800040F29F47C4F20207B84241DC40F2704776
:10239000C4F20207B84248D040F2884740E000BF8C
:1023A000D00300F1B382A16C002940F0AA82B0E210
:1023B00011046F6000F1B082910609D4016821F028
:1023C0000A010160012084F83500002084F83400FF
:1023D000E16B002940F095829BE200BF4027C4F2E8
:1023E0000207B84221D058271AE000BF40F2404708
:1023F000C4F20207B84218D040F2584710E000BFBC
:10240000A027C4F20207B8420FD0B82708E000BFE7
:1024100040F2A047C4F20207B84206D040F2B847E3
:10242000C4F20207B84218BF082307681F4208D049
:10243000036823F004030360AA60626D42F00102A6
:10244000626501228A4032426FD0504510DC6F2312
:10245000C4F2020398421DDC3F23C4F202039842F7
:1024600034DC1023C4F20203984256D028234FE0F4
:1024700048451BDC40F23F43C4F2020398422DDC86
:1024800040F21043C4F20203984246D040F228437F
:102490003EE000BF9F23C4F20203984228DC702371
:1024A000C4F20203984238D0882331E040F29F43BF
:1024B000C4F20203984223DC40F27043C4F20203E8
:1024C00098422AD040F2884322E000BF4023C4F261
:1024D0000203984221D058231AE000BF40F2404343
:1024E000C4F20203984218D040F2584310E000BFF3
:1024F000A023C4F2020398420FD0B82308E000BF23
:1025000040F2A043C4F20203984206D040F2B8431E
:10251000C4F20203984240F0058243691B0604D5C9
:10252000AA60626D42F00202626504228A40324271
:102530006FD0504510DC6F23C4F2020398421DDCBB
:102540003F23C4F20203984234DC1023C4F2020396
:10255000984256D028234FE048451BDC40F23F43C9
:10256000C4F2020398422DDC40F21043C4F202038D
:10257000984246D040F228433EE000BF9F23C4F279
:102580000203984228DC7023C4F20203984238D038
:10259000882331E040F29F43C4F20203984223DCD7
:1025A00040F27043C4F2020398422AD040F28843BA
:1025B00022E000BF4023C4F20203984221D05823F6
:1025C0001AE000BF40F24043C4F20203984218D020
:1025D00040F2584310E000BFA023C4F20203984227
:1025E0000FD0B82308E000BF40F2A043C4F20203BA
:1025F000984206D040F2B843C4F20203984240F039
:10260000998103689B0704D5AA60626D42F00402B9
:102610006265102202FA01F1314200F081805045DA
:102620004FF0080210DC6F23C4F2020398421DDC55
:102630003F23C4F20203984234DC1023C4F20203A5
:10264000984256D028234FE048451BDC40F23F43D8
:10265000C4F2020398422DDC40F21043C4F202039C
:10266000984246D040F228433EE000BF9F23C4F288
:102670000203984228DC7023C4F20203984238D047
:10268000882331E040F29F43C4F20203984223DCE6
:1026900040F27043C4F2020398422AD040F28843C9
:1026A00022E000BF4023C4F20203984221D0582305
:1026B0001AE000BF40F24043C4F20203984218D02F
:1026C00040F2584310E000BFA023C4F20203984236
:1026D0000FD0B82308E000BF40F2A043C4F20203C9
:1026E000984206D040F2B843C4F20203984218BFA1
:1026F00004220368134213D0A960016849030168EA
:1027000008D4C90508D4016821F008010160216CD2
:1027100021B905E008034FD4216C09B12046884750
:10272000E06D00F01F01202000FA01F2324200F0BB
:10273000AB8020681023504510DC6F27C4F20207DD
:10274000B8421DDC3F27C4F20207B84238DC10272C
:10275000C4F20207B8425AD0282753E048451BDC90
:1027600040F23F47C4F20207B84231DC40F2104762
:10277000C4F20207B8424AD040F2284742E000BF04
:102780009F27C4F20207B8422CDC7027C4F202076C
:10279000B8423CD0882735E040F29F47C4F2020798
:1027A000B84227DC40F27047C4F20207B8422ED08C
:1027B00040F2884726E000BFA16C0029AED1AFE708
:1027C0004027C4F20207B84221D058271AE000BFC0
:1027D00040F24047C4F20207B84218D040F25847CE
:1027E00010E000BFA027C4F20207B8420FD0B827FC
:1027F00008E000BF40F2A047C4F20207B84206D08A
:1028000040F2B847C4F20207B84218BF0223076873
:102810001F4239D0AA6094F83520042A02681BD1DF
:1028200022F016020260426922F080024261226CAC
:102830000AB9A26C1AB1026822F0080202603F20B5
:102840008840A860012084F83500216D002000290F
:1028500084F8340055D15CE0510301680CD4C905FB
:102860000ED4016821F010010160012084F83500C8
:10287000002084F8340003E0080301D4616C00E018
:10288000E16B09B120468847606D002841D0606D3A
:10289000C00734D0042084F8350020684FEA98211E
:1028A000026822F001020260019A013201928A421A
:1028B0001AD80268D20717D0019A013201928A42CF
:1028C00012D80268D2070FD0019A013201928A42CF
:1028D0000AD80268D20707D0019A013201928A42CF
:1028E00002D80268D207DFD10068C0074FF00300AA
:1028F00008BF012084F83500002084F83400E16C22
:1029000039B1204602B0BDE8F0470847216C0029E4
:10291000F7D102B0BDE8F087D0030DD4616C002977
:10292000EFD1F6E7026804228A4032427FF401AE1A
:102930006FE600BF02686CE6E16B0029E1D1E8E7D1
:10294000F0B581B0044600F027FE002C00F017819E
:1029500040F26F4705462068C4F20207B84217DC10
:102960009F21C4F2020188422EDC5721C4F20201E9
:10297000884255DC1021C4F20201884200F07F80B9
:102980002821C4F20201884279D0402172E000BFC0
:1029900045F22F41C5F60201884229DC40F2B741D9
:1029A000C4F20201884247DC40F27041C4F20201E5
:1029B000884264D040F28841C4F2020188425ED06D
:1029C00040F2A04156E000BF40F22741C4F20201AC
:1029D000884241DCA021C4F2020188424FD0B821D4
:1029E000C4F2020188424AD040F2104142E000BFE6
:1029F00045F26B41C5F60201884200F3C38045F2FF
:102A00003041C5F60201884200F0CF8045F24441D2
:102A1000C5F60201884200F0C88045F25841BFE087
:102A20005821C4F20201884229D07021C4F2020167
:102A3000884224D088211DE040F2B841C4F202014E
:102A400088421CD045F20841C5F60201884200F0D8
:102A5000AC8045F21C41A3E040F22841C4F20201DF
:102A600088420CD040F24041C4F20201884206D0B4
:102A700040F25841C4F20201884240F071820221C2
:102A800084F83510002184F83410016821F0010128
:102A900001600168C90709D000F07EFD401B0528D0
:102AA00000F2688020680168C907F5D148F23F024A
:102AB00004F108060168CFF6106211406CCE114394
:102AC000A2691943E3692943256A0E43616A1643E3
:102AD000042943EA060343EA050303D1D4E90B655D
:102AE00033432B4341F20006C5F600463668B6F183
:102AF000005F1DD36668A6F12905292D18D8DFE8E7
:102B000005F015151515151517171717171717179A
:102B1000171717171717171715151515171717174D
:102B200015151717171717171515151543F48013D3
:102B300003600429436923F0070341EA030140F0DD
:102B4000F180D4E90A53002B41EA050100F0EA8044
:102B5000B2F5005F00F0CC80002A40F0D580022D55
:102B600000F0D580012D00F0C980002D00F0CF804D
:102B7000D8E000BF20206065032084F835000120E4
:102B800001B0F0BD45F26C41C5F6020188420CD09F
:102B900045F28041C5F60201884206D045F29441D3
:102BA000C5F60201884240F0DB81022184F835102D
:102BB000002184F834100168A268A2F18003E6685D
:102BC000B3FA83F3402A4FEA53134FEA83336FF388
:102BD000101108BF1023226941EAD6016669194322
:102BE000A36941EAD201E26941EAD60141EAD3018F
:102BF0004CF6CD4341EAD2014AF6F832CAF2FD72F0
:102C0000266A0244CCF6CC43A2FB032341EA161108
:102C100001606FF0030000EA9300E0652046FEF7D4
:102C200007F8E16D012201F01F0102FA01F1416094
:102C30002068B84240F3858045F22F41C5F6020175
:102C4000884217DC40F2B741C4F20201884229DC15
:102C500040F27041C4F20201884200F0BC8040F2B0
:102C60008841C4F20201884200F0B58040F2A041E0
:102C7000ACE000BF45F26B41C5F60201884223DC9F
:102C800045F23041C5F60201884200F0A48045F2C9
:102C90004441C5F60201884200F09D8045F258414A
:102CA00022E000BF40F2B841C4F20201884200F0C5
:102CB000928045F20841C5F60201884200F08B80FF
:102CC00045F21C4110E000BF45F26C41C5F602011F
:102CD000884200F0808045F29441C5F602018842A6
:102CE00000F0798045F28041C5F6020170E000BF36
:102CF000032D17D8DFE805F00E0B0E02A3F1C0720A
:102D0000B2FA82F2520904E0032D03D30AD1C3F3CD
:102D100000623AB140206065012084F8350001B0BE
:102D2000F0BD00BF41612046FDF782FFE16D3F220B
:102D300001F01F0102FA01F181602068B8423FF7FB
:102D40007BAF9F21C4F20201884211DC5721C4F2FB
:102D50000201884220DC1021C4F2020188423AD0EC
:102D60002821C4F20201884235D040212EE000BF64
:102D700040F22741C4F20201884219DCA021C4F2CA
:102D80000201884227D0B821C4F20201884222D031
:102D900040F210411AE000BF5821C4F202018842FB
:102DA00019D07021C4F20201884214D088210DE0AC
:102DB00040F22841C4F2020188420CD040F2404166
:102DC000C4F20201884206D040F25841C4F2020126
:102DD000884240F0E98045F2574C45F6FC01C5F6C3
:102DE000020CC5F60201604512DC45F22F42C5F621
:102DF0000202904220DC45F20842C5F602029042EF
:102E000034D045F21C42C5F6020290422ED075E045
:102E100045F27F42C5F6020290421BDC45F2584261
:102E2000C5F60202904221D045F26C42C5F602027C
:102E300090421BD062E000BF45F23042C5F602026C
:102E4000904213D045F24442C5F6020290420DD0A2
:102E500054E000BF45F29442C5F60202904205D00C
:102E600045F28042C5F60202904247D16FF0070258
:102E70004CF6CD4352FA80F2CCF6CC43A2FB0323AE
:102E8000A1F1FC05A1F17C061B0905EB830503F00C
:102E90001F02A3682566802B4FF0010303FA02F29C
:102EA0006666A26604D100206060286072601DE042
:102EB0006768FBB2013F072F2B60726016D85E1E59
:102EC000082E19D2604501F1440239DC45F22F4742
:102ED000C5F60207B84245DC45F20847C5F60207C9
:102EE000B84255D045F21C474EE000BF0020606755
:102EF000C4E91B0058E000BFE06E50E06FF00F0225
:102F00004AF6AB2352FA80F2CAF6AA23A2FB0327A1
:102F100040F20F43C4F2020308253A09984203F134
:102F2000AA06134688BF05EB171340F60005B0420A
:102F3000C4F2020505F1800628BF1346A5E700BFCD
:102F400045F27F47C5F60207B84215DC45F25847FF
:102F5000C5F60207B8421BD045F26C4714E000BF2B
:102F6000402008E645F23047C5F60207B8420FD0C8
:102F700045F2444708E000BF45F28047C5F6020726
:102F8000B84205D045F29447C5F60207B84213D1BE
:102F900001EB83000121E066B140226761670021F7
:102FA0000160D4E91C01416000206065012184F8C2
:102FB000351001B0F0BD00BF40F60000C4F20200C1
:102FC00000F1FC0100F5A072E2E700000000000043
:102FD000B0B500283CD0054690F83400012801D156
:102FE0000220B0BD012085F8340095F83500012895
:102FF00028D1022085F8350000206865286804681B
:1030000024F0010404602846FDF7AAFE40F20F42B6
:103010002868C4F2020240F26F419042C4F20201F9
:1030200018DC6F23C4F20203984225DC3F23C4F26C
:10303000020398423CDC1023C4F2020398425ED0A3
:10304000282357E04FF400606865002085F83400BD
:103050000120B0BD88421BDC40F23F43C4F20203B2
:1030600098422DDC40F21043C4F20203984246D04D
:1030700040F228433EE000BF9F23C4F2020398427F
:1030800028DC7023C4F20203984238D0882331E050
:1030900040F29F43C4F20203984223DC40F27043A3
:1030A000C4F2020398422AD040F2884322E000BFD3
:1030B0004023C4F20203984221D058231AE000BFF3
:1030C00040F24043C4F20203984218D040F2584301
:1030D00010E000BFA023C4F2020398420FD0B8232F
:1030E00008E000BF40F2B843C4F20203984206D0A1
:1030F00040F2A043C4F20203984240F02F810368DB
:103100000B2464F3440303602B6C1BB10823046895
:1031100023430360884219DC9F23C4F202039842D0
:1031200032DC5723C4F20203984259DC1023C4F264
:103130000203984200F096802823C4F202039842CA
:1031400000F090804023C4F2020389E045F22F434F
:10315000C5F6020398422DDC40F2B743C4F20203E5
:1031600098424BDC40F27043C4F20203984279D09B
:1031700040F28843C4F20203984273D040F2A04365
:10318000C4F202036CE000BF40F22743C4F2020322
:10319000984243DCA023C4F20203984262D0B823D1
:1031A000C4F2020398425DD040F21043C4F202031D
:1031B00056E000BF45F26B43C5F6020398423FDC80
:1031C00045F23043C5F6020398424BD045F24443E2
:1031D000C5F60203984245D045F258433EE000BF91
:1031E0005823C4F2020398423CD07023C4F2020375
:1031F000984237D08823C4F2020331E040F2B8434A
:10320000C4F2020398422DD045F20843C5F60203EA
:10321000984227D045F21C4320E000BF40F22843EB
:10322000C4F2020398421DD040F24043C4F20203AC
:10323000984217D040F25843C4F2020310E000BF96
:1032400045F26C43C5F6020398420BD045F2944315
:10325000C5F60203984205D045F28043C5F6020345
:10326000984274D12B6E1C68E40303D51C6844F4A7
:1032700080741C60EB6E1BB11D6845F480751D6089
:10328000904211DC6F21C4F2020188421EDC3F2112
:10329000C4F20201884235DC1021C4F202018842E6
:1032A00055D0282150E000BF88421BDC40F23F414E
:1032B000C4F2020188422DDC40F21041C4F2020146
:1032C000884244D040F228413EE000BF9F21C4F232
:1032D0000201884228DC7021C4F20201884236D003
:1032E000882131E040F29F41C4F20201884223DC90
:1032F00040F27041C4F20201884228D040F2884175
:1033000022E000BF4021C4F2020188421FD05821B0
:103310001AE000BF40F24041C4F20201884216D0D8
:1033200040F2584110E000BFA021C4F202018842DF
:103330000DD0B82108E000BF40F2B841C4F202014C
:10334000884204D040F2A041C4F2020188420168E0
:1033500041F0010101600020B0BD00BF03680524F9
:1033600064F3430303602B6C002B3FF4D3AE0423C0
:10337000CDE6000000000000B0B5044600F00CF9F6
:1033800040F204010546C2F20041621C097818BFF0
:103390000C4400BF00F000F9401BA042FAD3B0BDBE
:1033A0002DE9F04F85B08E4642F20042C5F602028A
:1033B0000A2102909042DEF8005008BF0921002D3A
:1033C000009100F0DD800298002400F12642009870
:1033D00002F1FF7201274FEAB2230026092B4FF0BA
:1033E000000838BF1846CDF80CE000900EE000BF92
:1033F000DEF8005008F1010835FA07F006F1020680
:1034000007F1010704F1040400F0BA80A7F1010AF2
:10341000012000FA0AF315EA0309E9D0DEF804B046
:103420000BF003056A1E012A22D802984FEA4801D0
:10343000D0F808C00191032101FA06F203992CEAA1
:10344000020CD1F80CE00EFA06F1DDF80CE041EACE
:103450000C01816041686FEA020CCBF300129943C2
:103460000346019802FA0AF2114359600CE000BFCA
:103470000320032D00FA06F0029B6FEA000C304691
:1034800002D13046032526E0D968DEF8082001EA9B
:103490000C018240022D41EA0201D9601BD1024693
:1034A0006FF0030000EA5A010F20194404F01C03D6
:1034B00000FA03F51046D1F820E0039A2EEA05053C
:1034C000DDF80CE012699A40029B2A430A62DEF89A
:1034D00004B00BF00305196805FA00F001EA0C01CD
:1034E0001BF4403F40EA010018603FF481AF44F212
:1034F000F44140F20845C5F60201C5F600050F2368
:10350000086840F002000860086800F002000490BB
:103510002AF00300049904F00C0142598B409A43AD
:10352000009B03FA01F1114341514FF0B045286867
:10353000DEF8041040EA0902CB0258BF20EA090273
:103540008B022A6040F20405C5F60005286840EAAF
:10355000090258BF20EA09028B032A60D5F88000CF
:1035600040EA090258BF20EA0902C903C5F88020D1
:10357000E86F40EA090258BF20EA0902EA6737E724
:1035800005B0BDE8F08F000041F20000C5F6004034
:103590000068000C7047000043F6EC10C2F20040D7
:1035A000006870470000000040F2040043F6EC1190
:1035B000C2F20040C2F2004100780A68104408607C
:1035C000704700000000000080B5032000F0F8F80C
:1035D00001F092FC44F2184148F22C23C5F6020196
:1035E000C0F600030A68096801F00F01C2F3032264
:1035F000595C9A5C01F01F0102F01F02D04040F2BA
:103600001002C2F2004220FA01F1116040F20C01F6
:10361000C2F2004108600F2000F00AF800281CBF29
:10362000012080BD00F07CF8002080BD000000007B
:1036300070B540F20406C2F200463178E1B10446AA
:1036400040F20C00C2F200404FF47A72B2FBF1F18A
:103650000068B0FBF1F001F097FF0F2C4FF001056F
:1036600008D838B94FF0FF3000222146002500F07D
:1036700077F87460284670BD012070BD000000001E
:1036800010B54EF6A05E4178CEF2000E90F800C064
:103690004EF8081CDEF8001021F00101CEF80010F1
:1036A00041684EF8041C017BC37A827A447B1B0676
:1036B00043EA0171837B41EAC241C27B41EA844112
:1036C000447A41EA4341007A41EA024141EA042155
:1036D00041EA400040EA0C00CEF8000010BD0000B6
:1036E0004EF62450CEF20000BFF35F8F016821F444
:1036F0008031016000210167704700000000000078
:103700004EF6245140F00100CEF20001086708682F
:1037100040F480300860BFF34F8FBFF36F8F704766
:1037200081B044F2F440C5F60200016841F00201A4
:103730000160006800F002000090009801B070473E
:10374000002848BF704700F01F01012202FA01F172
:103750004EF200124009CEF2000242F820107047EB
:10376000B0B54EF60C5C00F00F05CEF2000C043D37
:103770006544DCF800304FF0FF3CC3F3022E8EF0BE
:103780000703042B28BF0423BEF1030438BF002421
:103790000CFA03F3B0F1FF3F21EA030105F10C033A
:1037A00000F160450CFA04F0C8BF05F56443A14080
:1037B00022EA0000084300011870B0BD00000000BC
:1037C0004EF60C514FF6FF03CEF200010A681A4084
:1037D00060F30A2242F0806040F0FD70086070479C
:1037E000B0B544F60C05C5F60205296849072968F5
:1037F00006D401F00701081A18BF0120B0BD00BFB0
:1038000021F0070108432860FFF7C6FE044600BF09
:1038100055F8080C800407D4FFF7BEFE001BB0F576
:103820007A7FF5D90120B0BD0020B0BD00000000B6
:1038300080B501F0D9FA44F2204148F22C22C5F6B5
:103840000201C0F600020968C1F30211515C01F0E7
:103850001F01C84080BD000080B544F2304EC5F65F
:10386000020E5EF8083C5EF8081CC1F3051C5EF809
:10387000041CBCF1000FDEF8042017D0C2F3CC0208
:1038800001F00101514303F00303022B00EE101A73
:10389000B8EE400A10D0012B12D01BB95EF8301CD4
:1038A000890611D49FED361A1CE000BF002181600B
:1038B000C0E9001180BD00BF9FED301A12E000BFCB
:1038C0009FED2D1A0EE000BF5EF8301C49F2000299
:1038D000C0F2D032C1F3C10122FA01F101EE101A97
:1038E000B8EE411ADEF800109FED263A6FF35F2123
:1038F00002EE101ADEF80010C1F34621B8EE422A9B
:1039000000EE032A00EE10CAB7EE003AB8EE400A05
:1039100081EE000A32EE031A02EE101AB8EE422AC5
:1039200020EE010A32EE031A80EE011ABCEEC11A33
:1039300080ED001ADEF80010C1F3064101EE101A06
:10394000B8EE411A31EE031A80EE011ABCEEC11A2C
:1039500080ED011ADEF80010C1F3066101EE101AC5
:10396000B8EE411A31EE031A80EE010ABCEEC00A2D
:1039700010EE101A816080BD0024744A20BCBE4B3A
:103980000024744C0000003980B544F2384EC5F66E
:10399000020E5EF8103C5EF8101CC1F3053C5EF8A8
:1039A0000C1CBCF1000FDEF8042015D0C1F300118F
:1039B000C2F3CC02514300EE101A03F003010229B6
:1039C000B8EE400A0ED089B95EF8381C890611D4C9
:1039D0009FED361A1CE000BF00218160C0E9001194
:1039E00080BD00BF9FED301A12E000BF9FED2D1A81
:1039F0000EE000BF5EF8381C49F20002C0F2D0327F
:103A0000C1F3C10122FA01F101EE101AB8EE411A18
:103A1000DEF800109FED263A6FF35F2102EE101AD8
:103A2000DEF80010C1F34621B8EE422A00EE032A68
:103A300000EE10CAB7EE003AB8EE400A81EE000A76
:103A400032EE031A02EE101AB8EE422A20EE010AF4
:103A500032EE031A80EE011ABCEEC11A80ED001A94
:103A6000DEF80010C1F3064101EE101AB8EE411A5B
:103A700031EE031A80EE011ABCEEC11A80ED011A74
:103A8000DEF80010C1F3066101EE101AB8EE411A1B
:103A900031EE031A80EE010ABCEEC00A10EE101AD5
:103AA000816080BD0024744A20BCBE4B0024744C4D
:103AB000000000390000000080B544F2404EC5F619
:103AC000020E5EF8183C5EF8181CC1F3055C5EF847
:103AD000141CBCF1000FDEF8042015D0C1F3002146
:103AE000C2F3CC02514300EE101A03F00301022985
:103AF000B8EE400A0ED089B95EF8401C890611D490
:103B00009FED361A1CE000BF00218160C0E9001162
:103B100080BD00BF9FED301A12E000BF9FED2D1A4F
:103B20000EE000BF5EF8401C49F20002C0F2D03245
:103B3000C1F3C10122FA01F101EE101AB8EE411AE7
:103B4000DEF800109FED263A6FF35F2102EE101AA7
:103B5000DEF80010C1F34621B8EE422A00EE032A37
:103B600000EE10CAB7EE003AB8EE400A81EE000A45
:103B700032EE031A02EE101AB8EE422A20EE010AC3
:103B800032EE031A80EE011ABCEEC11A80ED001A63
:103B9000DEF80010C1F3064101EE101AB8EE411A2A
:103BA00031EE031A80EE011ABCEEC11A80ED011A43
:103BB000DEF80010C1F3066101EE101AB8EE411AEA
:103BC00031EE031A80EE010ABCEEC00A10EE101AA4
:103BD000816080BD0024744A20BCBE4B0024744C1C
:103BE000000000390000000010B584B0024641F624
:103BF000FF7300209B1A70EB01033BDB40F2FF33A5
:103C00009B1A70EB010361DA82F480630B4300F0CE
:103C1000F78082F400630B4300F0188182F4805235
:103C2000114340F0868144F20041C5F60201086D5F
:103C3000C0F30232042A00F2548148F20000C0F2BC
:103C4000BB00DFE812F015013701410176010500E4
:103C5000C86C0A68520700F04052086802D5002A72
:103C600000F0B981C00540F17581B2F1805F00F0CC
:103C7000CC816FE147F6FF739B1A70EB010355DAB5
:103C800082F400430B4300F0F58082F480330B4351
:103C900000F0008182F40022114340F04A8144F296
:103CA0000040C5F60200816D01F44031B1F5003FDE
:103CB00000F02081B1F5803F00F02A81002940F01A
:103CC00010810068000140F10C81F6E082F48073FD
:103CD0000B4357D082F40072114340F02A8144F222
:103CE0000041C5F60201086DC0F38212042A00F2F9
:103CF000F88048F20000C0F2BB00DFE812F0B90023
:103D0000DB00E5001A010500C86C0A68520700F0E4
:103D10004052086802D5002A00F05D81C00540F1DC
:103D20001981B2F1805F00F0708113E182F40053D9
:103D30000B434DD082F48042114340F0FA8044F2AC
:103D40000044C5F60204A06DC0F30270052800F21D
:103D5000C880DFE810F007001101130115011B01F5
:103D60001D0100BF01F040F8216A48F22C22C0F684
:103D70000002C1F30211515C01F01F01C84004B000
:103D800010BD00BF44F20041C5F60201086D00F00D
:103D90000702042A00F2A58048F20000C0F2BB002E
:103DA000DFE802F0668892C7040000BFC86C0A68AA
:103DB000520700F04052086802D5002A00F00B813B
:103DC000C00540F1C780B2F1805F00F01E81C1E004
:103DD00044F20040C5F60200016DC1F3024105291D
:103DE00000F27F80DFE811F00600DE00E800F2005C
:103DF0000201540004B0BDE8104001F01DB800BF3E
:103E000044F20041C5F60201886DC0F34252042A13
:103E100000F2678048F20000C0F2BB00DFE802F069
:103E2000284A5489040000BFC86C0A68520700F091
:103E30004052086802D5002A00F0CD80C00540F14C
:103E40008980B2F1805F00F0E08083E044F20041BD
:103E5000C5F60201886DC0F30262042A41D848F217
:103E60000000C0F2BB00DFE802F003252F6467000A
:103E7000086834E044F20040C5F60200016D01F02C
:103E80004051B1F1005F4DD0B1F1805F26D041BB10
:103E900000687EE044F20040C5F60200C16C006894
:103EA000C9031CD500011CD501A8FFF76DFD0398BF
:103EB00004B010BD0868000113D501A8FFF764FD28
:103EC000019804B010BD00BF0868800009D501A8A2
:103ED000FFF7F2FD019804B010BD00BF006880013B
:103EE00002D4002004B010BD01A8FFF7B5FC029871
:103EF00004B010BDC16C0268520701F04051026865
:103F000040F17E80002940F07B80C2F3C10064E074
:103F100000688000E5D501A8FFF7CEFD039804B046
:103F200010BD00BF00680001DBD501A8FFF72CFD24
:103F3000029804B010BD00BFC86C0A68520700F0B8
:103F40004052086801D5002A45D0C00502D5B2F11B
:103F5000805F5AD00868B2F1005F00F400314FF082
:103F6000000004BF47F64000C0F27D10002908BFE2
:103F7000084604B010BD00BF206814E020681CE0B3
:103F800020684007ADD5206825E000BF20682EE0FE
:103F9000206847F640018003C0F27D1101EAE0701D
:103FA00004B010BD006800019BD501A8FFF7ECFC30
:103FB000029804B010BD00BF006880007FF591AF8B
:103FC00001A8FFF779FD029804B010BD0168490708
:103FD0007FF587AF0068C0F3C10049F20001C0F26D
:103FE000D03121FA00F004B010BD00BF006840F6E7
:103FF0000011C005C0F23D0101EAE07004B010BD3F
:10400000D20509D5B1F1805F06D140F60010C0F2AB
:104010003D0004B010BD00BF0068B1F1005F00F4C6
:1040200000324FF0000004BF47F64000C0F27D10A0
:10403000002A08BF104604B010BD000000000000B8
:104040002DE9F0470446C07844F22C480007C5F635
:10405000020833D5A06E4FEA305103290CD8DFE8AF
:1040600001F003111D2600BFD8F8001041F4003103
:10407000C8F800101BE000BF01266078C0070BD015
:1040800020E000BF04F10800022101F0A5FF064670
:1040900060B16078C00715D1354646E004F12800CC
:1040A000022102F02DF806460028F2D1A06ED8F8C1
:1040B000241021F440110843C8F824000026607839
:1040C000C007E9D0A06D04280ED83546DFE800F01F
:1040D0000412181E1E0000BFD8F80000354640F438
:1040E0000030C8F8000011E0012501276078800742
:1040F0001FD452E004F10800002101F06DFF04E03C
:1041000004F12800002101F0FBFF05462F461DB1F8
:10411000607880070DD440E0D8F82400A16D20F02D
:10412000070000250843C8F8240037466078800758
:1041300033D5E06D4FEAB01004280DD8DFE800F069
:104140000412181E1E0000BFD8F8000040F4003012
:10415000C8F8000012E000BF012501266078400782
:104160001FD455E004F10800002101F035FF04E000
:1041700004F12800002101F0C3FF05462E461DB1C1
:10418000607840070DD443E0D8F82400E16D20F4B6
:10419000E07000250843C8F824003E4660784007D8
:1041A00036D5D4F8A8004FEA705004280CD8DFE8C0
:1041B00000F00313191F1F00D8F8000040F400306E
:1041C000C8F8000014E000BF01254FF00109607835
:1041D000000721D456E000BF04F10800002101F0DF
:1041E000FBFE04E004F12800002101F089FF0546F0
:1041F000A9461DB1607800070ED443E0D8F82C0022
:10420000D4F8A81020F4600000250843C8F82C005A
:10421000B1466078000735D5D4F8AC004FEA30607D
:1042200004280DD8DFE800F00412181E1E0000BF9D
:10423000D8F8000040F40030C8F8000012E000BFD9
:1042400001250127E078800720D44EE004F1080022
:10425000002101F0C1FE04E004F12800002101F07A
:104260004FFF05462F461DB1E07880070ED43CE095
:10427000D8F82C00D4F8AC1020F0E06000250843FA
:10428000C8F82C004F46E07880072ED5E06C4FEA46
:10429000301003280ED8DFE800F00903130900BF2F
:1042A000D8F8000040F40030C8F800002E467DB970
:1042B00012E000BF012501266078C00619D44CE049
:1042C00004F10800022101F087FE05462E461DB1CB
:1042D0006078C0060DD440E0D8F82000E16C20F0F2
:1042E000300000250843C8F820003E466078C0062C
:1042F00033D5206E4FEA303004280DD8DFE800F0C7
:104300000412181E1E0000BFD8F8000040F4003050
:10431000C8F8000012E000BF012501276078800680
:104320001FD44EE004F10800002101F055FE04E026
:1043300004F12800002101F0E3FE05462F461DB1DF
:10434000607880060DD43CE0D8F82400216E20F47B
:10435000E04000250843C8F824003746607880060E
:104360002FD5606E4FEA3040052809D8DFE800F00D
:10437000040E1404040400BF2E46ADB918E000BFBB
:1043800001250126607840061FD44FE004F10800A3
:10439000012101F021FE04E004F12800012101F0D7
:1043A000AFFE05462E461DB1607840060DD43DE0B7
:1043B000D8F82400616E20F4E02000250843C8F8F6
:1043C00024003E466078400630D5D4F8B0004FEA6D
:1043D0003070052808D8DFE800F0030D130303034D
:1043E0002F46ADB918E000BF01250127607800060F
:1043F00020D442E004F10800012101F0EDFD04E0C9
:1044000004F12800012101F07BFE05462F461DB175
:10441000607800060ED430E0D8F82C00D4F8B01044
:1044200020F0E04000250843C8F82C0037466078AB
:10443000000622D5206F58B1B0F1005F0CD0B0F16A
:10444000805F2FD1D8F8000040F40030C8F8000099
:104450002E469DB908E000BF04F10800012101F0DB
:10446000BBFD05462E464DB9D8F82400216F20F03B
:10447000405000250843C8F824003E46E078C007B5
:1044800033D0A06C032813D8DFE800F008021A0824
:10449000D8F8000040F40030C8F80000A946BDB9C3
:1044A0001AE000BF01250126E078C007E9D11CE031
:1044B00001254FF00109A07840061AD51CE000BF85
:1044C00004F10800022101F087FD0546A9461DB14F
:1044D000A07840060DD50FE0D8F82000A16C20F0A0
:1044E000030000250843C8F82000B146A078400624
:1044F00002D44F4618E000BFD8F8D40340F48070CF
:10450000C8F8D403FFF748F8064600BFD8F8D4032C
:10451000C00507D4FFF740F8801B6428F6D90325AF
:10452000032701E02F468DB12078C00761D0E06FEE
:104530004FEAF00005283BD8DFE800F004404604CD
:10454000040400BF002D2E4646D149E0D8F844109F
:10455000D4F8B400414011F4407F11D0D8F8441091
:10456000D8F8442042F48032C8F84420D8F84420D7
:1045700021F4407122F48032C8F84420C8F8441075
:10458000B0F5807F40F0DE82FFF706F8064641F284
:10459000883A0325032700BFD8F84400800700F1BC
:1045A000CF82FEF7F9FF801B5045F5D9BCE700BF6D
:1045B00001260125207880071FD44CE004F1080073
:1045C000012101F009FD04E004F12800012101F0BE
:1045D00097FD05462E461DB1207880070DD43AE0A0
:1045E000D8F82800E16F20F0380000250843C8F80B
:1045F00028003E46207880072DD5A06F052809D8D1
:10460000DFE800F0040E1404040400BF2F46ADB927
:1046100018E000BF01270125207840071FD44DE096
:1046200004F10800012101F0D7FC04E004F12800A6
:10463000012101F065FD05462F461DB12078400798
:104640000DD43BE0D8F82800A16F20F0070000252A
:104650000843C8F828003746207840072ED5D4F8FC
:104660009400052808D8DFE800F0030D13030303C6
:104670002E46ADB918E000BF01260125207880063E
:1046800020D451E004F10800012101F0A5FC04E070
:1046900004F12800012101F033FD05462E461DB12D
:1046A000207880060ED43FE0D8F82C00D4F894107F
:1046B00020F0070000250843C8F82C003E4620786B
:1046C000800631D5D4F890004FEA3070052809D81B
:1046D000DFE800F0040E1404040400BF2F46ADB957
:1046E00018E000BF012701252078400620D451E0C2
:1046F00004F10800002101F06FFC04E004F128003F
:10470000022101F0FDFC05462F461DB12078400630
:104710000ED43FE0D8F82800D4F8901020F0E04004
:1047200000250843C8F8280037462078400631D5D0
:10473000D4F89C004FEAB020052809D8DFE800F043
:10474000040E1404040400BF2E46ADB918E000BFE7
:10475000012601252078000620D454E004F1080049
:10476000002101F039FC04E004F12800022101F0ED
:10477000C7FC05462E461DB1207800060ED442E047
:10478000D8F82C00D4F89C1020F4E0500025084301
:10479000C8F82C003E462078000634D5D4F8A00096
:1047A0004FEA703005280FD8DFE800F004141A042F
:1047B000040400BF2F46E5B12068010727D4C106D5
:1047C0003ED4000355D475E0012701252068010778
:1047D000F5D51CE004F10800002101F0FDFB04E028
:1047E00004F12800022101F08BFC0546002D2F4624
:1047F000E2D1D8F82C00D4F8A01020F460400025B5
:104800000843C8F82C00374620680107D7D5D4F8EC
:104810008400B0F5805F09D104F12800022101F085
:104820006FFC002818BF0127D4F88400D8F828109E
:1048300021F440510843C8F828002068C106C0D5BB
:10484000D4F89800B0F5807F09D104F12800022146
:1048500001F056FC002818BF0127D4F89800D8F8BA
:104860002C1021F440710843C8F82C002068000384
:1048700020D5D4F8A400B0F5003F0FD0B0F5803FAC
:1048800006D078BB04F10800002101F0A5FB04E08C
:1048900004F12800022101F033FC05462E4655B9EB
:1048A000D8F82C00D4F8A41020F440300025084398
:1048B000C8F82C003E46A07840072BD5D4F88800D5
:1048C000B0F5401F0BD0B0F5001F11D0B0F5801F20
:1048D0002AD1D8F8000040F40030C8F800002F4674
:1048E000CDB90DE001260125A0784007E6D411E0FE
:1048F00004F12800012101F003FC05462F4655B9BB
:10490000D8F82800D4F8881020F440100025084377
:10491000C8F828003746A078C0070AD13E4621686B
:10492000880016D533E000BF01270125A078C00715
:10493000F4D0206DB0F5803F10D018BBD8F800003F
:1049400040F40030C8F800002E4685B12168880088
:104950001DD460688A0326D469E000BF04F1080012
:10496000022101F039FB0546002D2E46EED1D8F884
:104970002000216D20F4803000250843C8F8200075
:10498000CCE700BF0126012521688800E1D504F1AC
:104990002800022101F0B4FB002818BF0126D4E949
:1049A00000108A0343D5D4F880206FF0010303EB95
:1049B0003223022B0BD34FEA322343B1012B40F0B9
:1049C000B980D8F8003043F40033C8F800303DB364
:1049D000CA022FD4CA0037D48A0240D44A0048D42D
:1049E000CA0F55D109025DD4C10766D181076FD4C2
:1049F000410779D4010700F18380C10600F18C8062
:104A0000800607D504F12800022101F079FB002877
:104A100018BF0125002D18BF01252846BDE8F087E5
:104A2000D8F8283023F440731A43C8F828203546B4
:104A3000CA02CFD5D8F82420636F22F000421A436F
:104A4000C8F82420CA00C7D558F81C2CD4F8B830B0
:104A500022F480421A4348F81C2C8A02BED5D8F8AA
:104A60002420E36E22F080721A43C8F824204A0002
:104A7000B6D558F81C2C22F4004248F81C2CD4F867
:104A8000BC2058F81C3C1A4348F81C2CCA0FA9D06B
:104A9000D8F82020636D22F040521A43C8F8202035
:104AA0000902A1D5D8F82810D4F88C2021F44001AF
:104AB0001143C8F82810C10798D004F1080000215C
:104AC00001F08AFA002818BF0546606881078FD573
:104AD00004F10800012101F07FFA002818BF054603
:104AE000606841077FF586AF04F10800022101F0FC
:104AF00073FA002818BF0546606801077FF57DAF8F
:104B000004F12800002101F0FBFA002818BF054637
:104B10006068C1067FF574AF04F12800012101F03F
:104B2000EFFA002818BF0546606880067FF572AF6F
:104B300068E700BF0125CA027FF54CAF7AE700BFE6
:104B4000D4F8B4004FF6CF7358F81C2CC0F2FF0312
:104B500000F4407122F47C5203EA10136FF31F300B
:104B6000B1F5407F08BF1A43002548F81C2CD8F83F
:104B700044100843C8F84400FFF7BBBC0000000025
:104B80002DE9F04381B0002800F02A8142F20008AC
:104B90000446C5F200288946D8F8000000F00F004E
:104BA00088420ED2D8F8000020F00F0040EA090039
:104BB000C8F80000D8F8000000F00F00484540F0A9
:104BC0000F81206844F218474107C5F602070AD54D
:104BD00021693A6802F07002914204D93A6822F0E1
:104BE00070021143396001070AD561697A6802F0E1
:104BF0007002914204D97A6822F070021143796000
:104C0000C1060AD5A1697A6802F4E062914204D92A
:104C10007A6822F4E0621143796081060AD5E1697D
:104C2000BA6802F07002914204D9BA6822F07002A8
:104C30001143B96010F002010AD0E2683B6803F04A
:104C40000F039A4204D93B6823F00F031A433A60DA
:104C5000C20746D0386820F47061D4E90102012807
:104C600041EA0201396009D003280DD0022811D190
:104C700057F8181C890340F1B38010E057F8181C4E
:104C8000C90540F1AD800AE057F8181C890140F1D0
:104C9000A78004E057F8181C490740F1A18057F895
:104CA000081C21F00701084347F8080CFEF774FCC4
:104CB000064641F2883500BF57F8080C616800F0DD
:104CC0003800B0EBC10F09D0FEF766FC801BA8428C
:104CD000F2D9032001B0BDE8F08300BF206800F0E6
:104CE000020151B1E1683A6802F00F02914204D228
:104CF0003A6822F00F0211433960D8F8001001F031
:104D00000F0149450DD9D8F8001021F00F0141EAF3
:104D10000901C8F80010D8F8001001F00F0149454A
:104D20005ED141070AD521693A6802F070029142CA
:104D300004D23A6822F070021143396001070AD5A3
:104D400061697A6802F07002914204D27A6822F0B6
:104D5000700211437960C1060AD5A1697A6802F42C
:104D6000E062914204D27A6822F4E06211437960F1
:104D700080060AD5E069B96801F07001884204D262
:104D8000B96821F070010843B86000F0B5F83968DF
:104D900048F22C233A68C0F60003C1F3032102F065
:104DA0000F02595C9A5C01F01F0120FA01F102F038
:104DB0001F0040F2100221FA00F0C2F2004210601F
:104DC00040F2080040F20C02C2F20040C2F200427F
:104DD0000068116001B0BDE8F043FEF729BC00BFD8
:104DE000012001B0BDE8F08380B500F085F844F201
:104DF000184148F22C23C5F60201C0F600030A68E8
:104E0000096801F00F01C2F30322595C9A5C02F0B9
:104E10001F0220FA02F201F01F0040F2100122FAF4
:104E200000F0C2F20041086040F20C01C2F2004101
:104E30000A6080BD0000000080B500F05DF844F21B
:104E4000184C48F22C21C5F6020CC0F60001DCF823
:104E50000020DCF8003003F00F03C2F30322CB5C28
:104E60008A5C02F01F02D04003F01F0240F21003E0
:104E700020FA02F2C2F200431A6040F20C03C2F2BE
:104E800000431860DCF80400C0F30210085C00F076
:104E90001F0022FA00F080BD80B500F02DF844F22A
:104EA000184C48F22C21C5F6020CC0F60001DCF8C3
:104EB0000020DCF8003003F00F03C2F30322CB5CC8
:104EC0008A5C02F01F02D04003F01F0240F2100380
:104ED00020FA02F2C2F200431A6040F20C03C2F25E
:104EE00000431860DCF80400C0F30220085C00F006
:104EF0001F0022FA00F080BD44F20041C5F6020115
:104F00000869C0F3C200032810D002282CD088BB47
:104F10000868800649F20000C0F2D03058BF7047E0
:104F20000968C1F3C101C840704700BF8A6A886A36
:104F3000C0F3051CC86ABCF1000F4B6B20D0C3F353
:104F4000CC0300F00100584302F00302022A00EEF5
:104F5000100AB8EE400A15D0C2B90868800619D404
:104F60009FED281A23E000BF47F64000C0F27D10F5
:104F7000704700BF40F60010C0F23D00704700BF10
:104F8000002070479FED1E1A11E000BF9FED1B1A15
:104F90000DE000BF086849F20002C0F2D032C0F351
:104FA000C10022FA00F001EE100AB8EE411A086BB7
:104FB0009FED153A6FF35F2002EE100A086BC0F305
:104FC0004620B8EE422A013000EE032A00EE10CA55
:104FD000B7EE003AB8EE400A81EE000A32EE031A4C
:104FE00020EE010A01EE100AB8EE411A80EE010A25
:104FF000BCEEC00A10EE100A704700BF0024744ACD
:1050000020BCBE4B0024744C00000039000000009E
:10501000F0B581B0002800F063810446007844F2C6
:105020000046C007C5F6020622D12078800740F16D
:10503000BC80306910F03801B06A3FD0182908BF31
:105040005FEA80703AD0E0683168002862D021F0D1
:10505000190108433060FEF79FFA054630684007A3
:1050600048D4FEF799FA401B0228F7D977E100BF30
:10507000306900F03801B06A102905D018290BD129
:1050800000F00300022807D130688003CDD56068A6
:105090000028CAD124E100BF606800284CD0B0F5D8
:1050A000A02F61D0B0F5803F62D0306820F480300E
:1050B0003060306820F480205DE000BF3068400739
:1050C000E06802D5002800F00B81316821F0190159
:1050D00008433060FEF760FA054600BF30684007BD
:1050E00008D4FEF759FA401B02284FF00300F5D907
:1050F00021E200BFFEF748FA41F20301884249D895
:1051000020697168402821F47C314BD141F4003092
:105110004AE000BF21F001003060FEF73DFA05468D
:105120003068400741D5FEF737FA401B02284FF0A0
:105130000300F5D9FFE100BF306820F48030306013
:10514000306820F480203060FEF726FA054600BF64
:10515000306880037FF569AFFEF71EFA401B6428B4
:105160004FF00300F4D9E6E1306840F4802030606D
:10517000306840F480303060FEF70EFA054600BF1C
:10518000306880033FF551AFFEF706FA401B6428F4
:10519000F6D9E4E07068216920F0FE4040EA016041
:1051A00002E000BF41EA003070602078C00654D5AC
:1051B000306900F03801B06A082905D0182919D1E2
:1051C00000F00300012815D13068C00503D5E0695F
:1051D000802840F08580FEF7D7F941F2030188422C
:1051E0001ED8206A7168202821F0F84132D141F0A0
:1051F000804031E0E0690028306819D040F080003C
:105200003060FEF7C9F905463068C005E3D4FEF703
:10521000C3F9401B02284FF00300F5D98BE100BF12
:10522000F068216A20F07C5040EA0160F06014E0F0
:1052300020F080003060FEF7AFF905463068C00509
:105240000BD5FEF7A9F9401B02284FF00300F5D952
:1052500071E100BF41EA806070602078000743D4AC
:105260002078800654D42078400765D4656A9DB3C1
:10527000306900F03800182840F0A880012DB16A8C
:10528000306B2DD001F00302A36A9A4228D1C1F3FA
:105290000511E26A914223D10146226B6FF35F212F
:1052A000013A91421CD1C0F34622616B01398A4216
:1052B00016D1C0F30642A16B01398A4210D1C0F366
:1052C0000660E16B013988420AD1706BA16CC0F3B2
:1052D000CC00814240F03281002001B0F0BD00BF1F
:1052E000012001B0F0BD00BF60690028706F39D0A7
:1052F00040F001007067FEF74FF90546706F8007B8
:10530000AED4FEF749F9401B0228F7D927E000BFC9
:10531000A0690028306847D040F480503060FEF724
:105320003BF90546306880049DD4FEF735F9401BF3
:105330000228F7D913E000BFD6F8000440F48070CB
:10534000C6F80004FEF728F9054600BFD6F80004A9
:10535000C00519D4FEF720F9401B6428F6D90320B4
:1053600001B0F0BD20F001007067FEF715F90546A9
:10537000706F80077FF574AFFEF70EF9401B0228AF
:105380004FF00300F4D9D6E0A068002840D00528EB
:1053900058D001285AD0306F20F001003067306FAC
:1053A00020F0040055E000BF20F480503060FEF78C
:1053B000F3F80546306880047FF555AFFEF7ECF84A
:1053C000401B02284FF00300F4D9B4E0306820F00D
:1053D00080703060FEF7E0F8022D05460CD100BF6A
:1053E0003068800148D5FEF7D7F8401B02284FF0FF
:1053F0000300F5D99FE000BF306880017FF56CAFF6
:10540000FEF7CAF8401B02284FF00300F4D992E0DF
:10541000306F20F001003067306F20F004003067FB
:10542000FEF7BAF8054641F28837306F80077FF5FE
:105430001DAFFEF7B1F8401BB8424FF00300F4D99E
:1054400079E000BF306F40F004003067306F40F00B
:1054500001003067FEF7A0F8054641F2883700BF2B
:10546000306F80073FF502AFFEF796F8401BB84259
:105470004FF00300F4D95EE004F12807B06A40F26F
:10548000F33188438ECF0843591E40EA02104FF48F
:105490007E426FF35F21B06202EB47204FF4FE02C1
:1054A00080B2E36B0844A16B02EB01414FF0FE4276
:1054B00001F4FE0102EB0362084402F0FE410844DD
:1054C0003063F06A4FF6F87120F00100F062706B03
:1054D000A26C884340EAC2007063F06A216C20F03D
:1054E0000C000843F062F06A616C20F0020008438F
:1054F000F062F06A40F48030F062F06A40F400300C
:10550000F062F06A40F48020F062F06A40F001003E
:10551000F062306840F080703060FEF73DF804467D
:10552000306880013FF5D8AEFEF736F8001B022840
:105530004FF00300F4D901B0F0BD00BFF06A20F0D5
:105540000100F062FEF728F80546FEF725F8A842AC
:10555000FBD0706B4FF6F871A26C884340EAC20032
:105560007063F06A40F00100F062002001B0F0BD0D
:1055700040F20442C5F60002136823EA0000084323
:105580001060704700000000411E0020B0EB116F5A
:1055900002D00120704700BF4EF21002F023CEF27D
:1055A000000251604EF62351CEF200010B7007212C
:1055B0009060116070470000B0B590F83C20012A5F
:1055C0004FF002025BD080F83D2040F2004C0268B0
:1055D000C4F2010C42F4806363455368D2F808E0DA
:1055E00002BF23F470034C68234341F2FF740D683B
:1055F000C4F2000423F07003A24243EA050353609F
:105600000CDC40F2FF73C4F200039A4216DCB2F1E4
:10561000804F29D040F2004318E000BF40F2FF3332
:10562000C4F201039A4217DC41F60003C4F20003FE
:105630009A4219D00023C4F2010309E040F60003A6
:10564000C4F200039A420FD040F60043C4F20003B4
:105650009A4209D00DE000BF44F20003C4F20103F6
:105660009A4201D0624504D12EF080038968194323
:1056700091600022012180F83D1080F83C20104606
:10568000B0BD00000000000060B310B5044690F803
:105690003D0028B9002084F83C00204600F024F8A2
:1056A000022084F83D002068211D00F0CDFE01207D
:1056B00084F8480084F83E0084F83F0084F84000F5
:1056C00084F8410084F8420084F8430084F84400E0
:1056D00084F8450084F8460084F8470084F83D00CB
:1056E000002010BD0120704781B040F200410068E9
:1056F000C4F20001884201D001B0704744F2E84092
:10570000C5F60200016841F002010160006800F086
:1057100002000090009801B07047000000000000F7
:1057200090F83D10012917D1022180F83D10016841
:1057300041F2FF70C4F2000081420FDC40F2FF70C2
:10574000C4F20000814217DCB1F1804F2CD040F24E
:105750000040C4F2000025E00120704740F2FF3015
:10576000C4F20100814213DC41F60000C4F20000E3
:10577000814219D0002013E040F60000C4F200007E
:10578000814211D040F60040C4F200000AE000BFA0
:1057900044F20000C4F20100814205D040F2004012
:1057A000C4F2010081420BD107228868C0F20102D5
:1057B00002400020062A18BFB2F5803F00D1704792
:1057C000086840F0010008600020704700000000F9
:1057D00080B590F83C20012A4FF0020200F0A7802B
:1057E00080F83D208822D0F800C0CFF6CE72DCF8D9
:1057F00008301A40CCF808200B686F2B0EDDB3F18F
:10580000101F37DAB3F5005F46DA702B00F0928094
:10581000B3F5805F00F08480D6E000BF2F2B33DD2E
:105820004F2B3FDC302B6FD0402B40F0CD80D1F898
:1058300004E0C968DCF82030DCF8202022F0010206
:10584000CCF82020DCF8182022F0F00242EA011106
:1058500023F00A02CCF8181042EA0E01CCF820100E
:105860004FF68872DCF80810CFF6CF72114047313E
:1058700054E000BF2F21C0F210018B423ADCB3F19B
:10588000101F41D020213BE0002B18BF102B3BD034
:10589000202B39D098E000BF60D0B3F5801F33D003
:1058A00092E000BF502B6DD0602B40F08D80D1F87E
:1058B00004E0C968DCF82030DCF8202022F0100277
:1058C000CCF82020DCF8182022F4704242EA0131A2
:1058D00023F0A002CCF8181042EA0E11CCF82010E8
:1058E0004FF68872DCF80810CFF6CF72114067319E
:1058F00014E000BF3021C0F210018B4204D04021DF
:10590000C0F210018B425FD14FF68872DCF80810AC
:10591000CFF6CF721140194341F00701CCF80810BF
:105920000022012180F83D10002180F83C10104633
:1059300080BD00BFD1E901E3C968DCF8082043EA73
:105940000E0322F47F4243EA01211143CCF80810F0
:10595000DCF8081041F07701E0E700BFD1E901E38E
:10596000C968DCF8082043EA0E0322F47F4243EAC8
:1059700001211143CCF80810DCF8081041F48041F3
:10598000CCE700BFD1F804E0C968DCF82030DCF8CF
:10599000202022F00102CCF82020DCF8182022F090
:1059A000F00242EA011123F00A02CCF8181042EA90
:1059B0000E01CCF820104FF68872DCF80810CFF6F4
:1059C000CF7211405731A9E70122AAE70000000079
:1059D00090F88410012901D1022070472421C0F8D9
:1059E000881002681368116823F0005321F0010148
:1059F00011600021416613602022C0F8882080F8E1
:105A0000841008467047000070B590F88420012A81
:105A100002D1022070BD00BF2422C0F88820026895
:105A2000D0F864E0BEF1000FD2F800C0136823F094
:105A300001031360936823F0606341EA03019160FE
:105A40001AD0916848F6542E9368C0F6000E5B0F8A
:105A500048F65C25C1F34266C0F600051EF8034017
:105A6000E95C2301B3FBF1F11EF80630AE5D1B01CA
:105A7000B3FBF6F302E000BF01210123A0F86A1096
:105A80002021A0F86830C2F800C0C0F888100021BA
:105A900080F88410084670BD70B590F88420012A03
:105AA00002D1022070BD00BF2422C0F88820026805
:105AB000D0F864E0BEF1000FD2F800C0136823F004
:105AC00001031360936823F0604341EA030191608E
:105AD0001AD0916848F6542E9368C0F6000E5B0FFA
